{
  "_format": "hh-sol-artifact-1",
  "contractName": "swapCode",
  "sourceName": "contracts/main.sol",
  "abi": [
    {
      "inputs": [
        {
          "internalType": "uint256",
          "name": "amountIn",
          "type": "uint256"
        },
        {
          "internalType": "address",
          "name": "_to",
          "type": "address"
        }
      ],
      "name": "swapETHforUSDC",
      "outputs": [],
      "stateMutability": "nonpayable",
      "type": "function"
    },
    {
      "inputs": [
        {
          "internalType": "uint256",
          "name": "amountIn",
          "type": "uint256"
        },
        {
          "internalType": "uint256",
          "name": "amountOutMin",
          "type": "uint256"
        },
        {
          "internalType": "address",
          "name": "_to",
          "type": "address"
        }
      ],
      "name": "swapUSDCforETH",
      "outputs": [],
      "stateMutability": "nonpayable",
      "type": "function"
    }
  ],
  "bytecode": "0x608060405234801561001057600080fd5b50610edf806100206000396000f3fe608060405234801561001057600080fd5b50600436106100365760003560e01c806314a275c01461003b578063356d141f14610057575b600080fd5b610055600480360381019061005091906109e3565b610073565b005b610071600480360381019061006c9190610a1f565b610480565b005b73c02aaa39b223fe8d0a0e5c4f27ead9083c756cc273ffffffffffffffffffffffffffffffffffffffff166323b872dd3330856040518463ffffffff1660e01b81526004016100c493929190610b66565b602060405180830381600087803b1580156100de57600080fd5b505af11580156100f2573d6000803e3d6000fd5b505050506040513d601f19601f8201168201806040525081019061011691906109ba565b610155576040517f08c379a000000000000000000000000000000000000000000000000000000000815260040161014c90610c32565b60405180910390fd5b73c02aaa39b223fe8d0a0e5c4f27ead9083c756cc273ffffffffffffffffffffffffffffffffffffffff1663095ea7b3737a250d5630b4cf539739df2c5dacb4c659f2488d846040518363ffffffff1660e01b81526004016101b8929190610b9d565b602060405180830381600087803b1580156101d257600080fd5b505af11580156101e6573d6000803e3d6000fd5b505050506040513d601f19601f8201168201806040525081019061020a91906109ba565b610249576040517f08c379a000000000000000000000000000000000000000000000000000000000815260040161024090610c12565b60405180910390fd5b6000600267ffffffffffffffff81111561028c577f4e487b7100000000000000000000000000000000000000000000000000000000600052604160045260246000fd5b6040519080825280602002602001820160405280156102ba5781602001602082028036833780820191505090505b50905073c02aaa39b223fe8d0a0e5c4f27ead9083c756cc28160008151811061030c577f4e487b7100000000000000000000000000000000000000000000000000000000600052603260045260246000fd5b602002602001019073ffffffffffffffffffffffffffffffffffffffff16908173ffffffffffffffffffffffffffffffffffffffff168152505073a0b86991c6218b36c1d19d4a2e9eb0ce3606eb4881600181518110610395577f4e487b7100000000000000000000000000000000000000000000000000000000600052603260045260246000fd5b602002602001019073ffffffffffffffffffffffffffffffffffffffff16908173ffffffffffffffffffffffffffffffffffffffff1681525050737a250d5630b4cf539739df2c5dacb4c659f2488d73ffffffffffffffffffffffffffffffffffffffff16637ff36ab560008385426040518563ffffffff1660e01b81526004016104239493929190610bc6565b600060405180830381600087803b15801561043d57600080fd5b505af1158015610451573d6000803e3d6000fd5b505050506040513d6000823e3d601f19601f8201168201806040525081019061047a9190610979565b50505050565b73a0b86991c6218b36c1d19d4a2e9eb0ce3606eb4873ffffffffffffffffffffffffffffffffffffffff166323b872dd3330866040518463ffffffff1660e01b81526004016104d193929190610b66565b602060405180830381600087803b1580156104eb57600080fd5b505af11580156104ff573d6000803e3d6000fd5b505050506040513d601f19601f8201168201806040525081019061052391906109ba565b610562576040517f08c379a000000000000000000000000000000000000000000000000000000000815260040161055990610c32565b60405180910390fd5b73a0b86991c6218b36c1d19d4a2e9eb0ce3606eb4873ffffffffffffffffffffffffffffffffffffffff1663095ea7b3737a250d5630b4cf539739df2c5dacb4c659f2488d856040518363ffffffff1660e01b81526004016105c5929190610b9d565b602060405180830381600087803b1580156105df57600080fd5b505af11580156105f3573d6000803e3d6000fd5b505050506040513d601f19601f8201168201806040525081019061061791906109ba565b610656576040517f08c379a000000000000000000000000000000000000000000000000000000000815260040161064d90610c12565b60405180910390fd5b6000600267ffffffffffffffff811115610699577f4e487b7100000000000000000000000000000000000000000000000000000000600052604160045260246000fd5b6040519080825280602002602001820160405280156106c75781602001602082028036833780820191505090505b50905073a0b86991c6218b36c1d19d4a2e9eb0ce3606eb4881600081518110610719577f4e487b7100000000000000000000000000000000000000000000000000000000600052603260045260246000fd5b602002602001019073ffffffffffffffffffffffffffffffffffffffff16908173ffffffffffffffffffffffffffffffffffffffff168152505073c02aaa39b223fe8d0a0e5c4f27ead9083c756cc2816001815181106107a2577f4e487b7100000000000000000000000000000000000000000000000000000000600052603260045260246000fd5b602002602001019073ffffffffffffffffffffffffffffffffffffffff16908173ffffffffffffffffffffffffffffffffffffffff1681525050737a250d5630b4cf539739df2c5dacb4c659f2488d73ffffffffffffffffffffffffffffffffffffffff166318cbafe585858486426040518663ffffffff1660e01b8152600401610831959493929190610c52565b600060405180830381600087803b15801561084b57600080fd5b505af115801561085f573d6000803e3d6000fd5b505050506040513d6000823e3d601f19601f820116820180604052508101906108889190610979565b5050505050565b60006108a261089d84610cd1565b610cac565b905080838252602082019050828560208602820111156108c157600080fd5b60005b858110156108f157816108d78882610964565b8452602084019350602083019250506001810190506108c4565b5050509392505050565b60008135905061090a81610e64565b92915050565b600082601f83011261092157600080fd5b815161093184826020860161088f565b91505092915050565b60008151905061094981610e7b565b92915050565b60008135905061095e81610e92565b92915050565b60008151905061097381610e92565b92915050565b60006020828403121561098b57600080fd5b600082015167ffffffffffffffff8111156109a557600080fd5b6109b184828501610910565b91505092915050565b6000602082840312156109cc57600080fd5b60006109da8482850161093a565b91505092915050565b600080604083850312156109f657600080fd5b6000610a048582860161094f565b9250506020610a15858286016108fb565b9150509250929050565b600080600060608486031215610a3457600080fd5b6000610a428682870161094f565b9350506020610a538682870161094f565b9250506040610a64868287016108fb565b9150509250925092565b6000610a7a8383610a86565b60208301905092915050565b610a8f81610d47565b82525050565b610a9e81610d47565b82525050565b6000610aaf82610d0d565b610ab98185610d25565b9350610ac483610cfd565b8060005b83811015610af5578151610adc8882610a6e565b9750610ae783610d18565b925050600181019050610ac8565b5085935050505092915050565b610b0b81610d8f565b82525050565b6000610b1e600e83610d36565b9150610b2982610e12565b602082019050919050565b6000610b41601383610d36565b9150610b4c82610e3b565b602082019050919050565b610b6081610d85565b82525050565b6000606082019050610b7b6000830186610a95565b610b886020830185610a95565b610b956040830184610b57565b949350505050565b6000604082019050610bb26000830185610a95565b610bbf6020830184610b57565b9392505050565b6000608082019050610bdb6000830187610b02565b8181036020830152610bed8186610aa4565b9050610bfc6040830185610a95565b610c096060830184610b57565b95945050505050565b60006020820190508181036000830152610c2b81610b11565b9050919050565b60006020820190508181036000830152610c4b81610b34565b9050919050565b600060a082019050610c676000830188610b57565b610c746020830187610b57565b8181036040830152610c868186610aa4565b9050610c956060830185610a95565b610ca26080830184610b57565b9695505050505050565b6000610cb6610cc7565b9050610cc28282610da1565b919050565b6000604051905090565b600067ffffffffffffffff821115610cec57610ceb610dd2565b5b602082029050602081019050919050565b6000819050602082019050919050565b600081519050919050565b6000602082019050919050565b600082825260208201905092915050565b600082825260208201905092915050565b6000610d5282610d65565b9050919050565b60008115159050919050565b600073ffffffffffffffffffffffffffffffffffffffff82169050919050565b6000819050919050565b6000610d9a82610d85565b9050919050565b610daa82610e01565b810181811067ffffffffffffffff82111715610dc957610dc8610dd2565b5b80604052505050565b7f4e487b7100000000000000000000000000000000000000000000000000000000600052604160045260246000fd5b6000601f19601f8301169050919050565b7f617070726f7665206661696c6564000000000000000000000000000000000000600082015250565b7f7472616e7366657246726f6d206661696c656400000000000000000000000000600082015250565b610e6d81610d47565b8114610e7857600080fd5b50565b610e8481610d59565b8114610e8f57600080fd5b50565b610e9b81610d85565b8114610ea657600080fd5b5056fea26469706673582212202d0d7847627f699aa8cd5f08ad54aa206da29582765fdc89935a490a247cbb9e64736f6c63430008040033",
  "linkReferences": {},
  "deployedLinkReferences": {}
}